:020000040000FA
:100000003D0A0802E201540A410B480B640B690BDC
:10001000730B760B790B7C0B6E0B7F0B870B830BB3
:100020008F0B510B4D0B4F0BAB0BB30BB80ABE0A2A
:10003000C60AD10AE00AEB0ABB0BC00BC8040802CF
:10004000E2012F0B980B9C0BC50BCF0BA10BA60B42
:10005000E8040802E2011D0B200B2C0B290B230BDB
:10006000260BE804C8040802E201080B0D0B330B51
:100070003A0BFA0AC8061E0A010A000C0200050023
:10008000FF0C060075007400650066006B00080C2C
:1000900024006509E8066409C8066409E8073A0A05
:1000A000C807280A310A6C09A909460AE9065D0A47
:1000B0000902F5010306B402540AFF0CA9018902E2
:1000C000B5000306F400540AA9098709650506026C
:1000D00065042000A4020008780003061805EC0659
:1000E0005805AB02EB020008AC02EC020008380530
:1000F0000008400006000002260025052504A40291
:100100000002260005050504FF0C0600000840005B
:100110000600140226002505250415022600050503
:100120000504FF0C06000008160C240079090008DD
:10013000120C240079090008090C24007909000830
:10014000F700F703F600F7000008F7030008B6020F
:100150000008F5030008B402000845050702260060
:100160004000060065056504FF0C06004504000814
:1001700094090F022700AD09A009540AA5099409A2
:10018000650506022F002C006504530A940910022D
:100190002700AD09A009940911022700AD09A009A3
:1001A000540AA50994096505060230002B00650470
:1001B000A50994096505060231002C006504530A5F
:1001C000940912022700AD09A0099409130227001F
:1001D000AD09A009540AA509940965050602320073
:1001E0002B006504A50994096505060233002C005F
:1001F0006504530A9C096505060235006504EA0397
:10020000020BA9029C096505060234006504460A32
:10021000090234000A023500460A94091402270034
:10022000AD09A009940915022700AD09A009940998
:1002300018022700AD09A009080B1807560A540A2E
:100240001806560A540A3807560A540A3806560A37
:10025000540A5807560A540A5806560A540A0902FC
:100260002C002F00530A09022B0030000A022C0038
:100270003100530A09022B0032000A022C0033001D
:10028000530A9809650506022C002F006504530ADD
:1002900098090F022700AD09540A1805540A1804DA
:1002A000540AA50994096505060238006504A509E4
:1002B00094096505060235006504A50994096505DC
:1002C000060234006504460A1102330010023200AF
:1002D000540A1302310012023000540A110237008E
:1002E00010023600540A11022F00540A0F02310086
:1002F000540A10022F00540A0F023000540AAF02B1
:100300000F022C00530AEF000F022C00530AF703D0
:100310008A0BB60213022C0012022B00530AF300C0
:10032000F303F200F30013022C0012022B00530A15
:1003300009024F012C00530A09026F010F022C0021
:10034000530A09022F010F022C00530A0902AF01C0
:100350000F022C00530A18060305180703042F0385
:100360000F022C00530A18060305180703046F0335
:100370000F022C00530A03042F030F022C00530A10
:1003800003046F030F022C00530A0902EF01180641
:10039000CC0B0F022C00530A010CEF01C90B090210
:1003A000AF001806D60B0F022C00530A010CAF0049
:0203B000D30B6D
:00000001FF
